{
  "_format": "hh-sol-artifact-1",
  "contractName": "Greeter",
  "sourceName": "contracts/Greeter.sol",
  "abi": [
    {
      "inputs": [
        {
          "internalType": "string",
          "name": "_greeting",
          "type": "string"
        }
      ],
      "stateMutability": "nonpayable",
      "type": "constructor"
    },
    {
      "anonymous": false,
      "inputs": [
        {
          "indexed": true,
          "internalType": "address",
          "name": "previousOwner",
          "type": "address"
        },
        {
          "indexed": true,
          "internalType": "address",
          "name": "newOwner",
          "type": "address"
        }
      ],
      "name": "OwnershipTransferred",
      "type": "event"
    },
    {
      "inputs": [],
      "name": "greet",
      "outputs": [
        {
          "internalType": "string",
          "name": "",
          "type": "string"
        }
      ],
      "stateMutability": "view",
      "type": "function"
    },
    {
      "inputs": [],
      "name": "owner",
      "outputs": [
        {
          "internalType": "address",
          "name": "",
          "type": "address"
        }
      ],
      "stateMutability": "view",
      "type": "function"
    },
    {
      "inputs": [],
      "name": "renounceOwnership",
      "outputs": [],
      "stateMutability": "nonpayable",
      "type": "function"
    },
    {
      "inputs": [
        {
          "internalType": "string",
          "name": "_greeting",
          "type": "string"
        }
      ],
      "name": "setGreeting",
      "outputs": [],
      "stateMutability": "nonpayable",
      "type": "function"
    },
    {
      "inputs": [
        {
          "internalType": "address",
          "name": "newOwner",
          "type": "address"
        }
      ],
      "name": "transferOwnership",
      "outputs": [],
      "stateMutability": "nonpayable",
      "type": "function"
    }
  ],
  "bytecode": "0x60806040523480156200001157600080fd5b506040516200122338038062001223833981810160405281019062000037919062000364565b620000576200004b620000a760201b60201c565b620000af60201b60201c565b620000876040518060600160405280602281526020016200120160229139826200017360201b620004581760201c565b80600190805190602001906200009f92919062000242565b5050620005b1565b600033905090565b60008060009054906101000a900473ffffffffffffffffffffffffffffffffffffffff169050816000806101000a81548173ffffffffffffffffffffffffffffffffffffffff021916908373ffffffffffffffffffffffffffffffffffffffff1602179055508173ffffffffffffffffffffffffffffffffffffffff168173ffffffffffffffffffffffffffffffffffffffff167f8be0079c531659141344cd1fd0a4f28419497f9722a3daafe3b4186f6b6457e060405160405180910390a35050565b6200021582826040516024016200018c929190620003ea565b6040516020818303038152906040527f4b5c4277000000000000000000000000000000000000000000000000000000007bffffffffffffffffffffffffffffffffffffffffffffffffffffffff19166020820180517bffffffffffffffffffffffffffffffffffffffffffffffffffffffff83818316178352505050506200021960201b60201c565b5050565b60008151905060006a636f6e736f6c652e6c6f679050602083016000808483855afa5050505050565b8280546200025090620004d6565b90600052602060002090601f016020900481019282620002745760008555620002c0565b82601f106200028f57805160ff1916838001178555620002c0565b82800160010185558215620002c0579182015b82811115620002bf578251825591602001919060010190620002a2565b5b509050620002cf9190620002d3565b5090565b5b80821115620002ee576000816000905550600101620002d4565b5090565b60006200030962000303846200044e565b62000425565b9050828152602081018484840111156200032257600080fd5b6200032f848285620004a0565b509392505050565b600082601f8301126200034957600080fd5b81516200035b848260208601620002f2565b91505092915050565b6000602082840312156200037757600080fd5b600082015167ffffffffffffffff8111156200039257600080fd5b620003a08482850162000337565b91505092915050565b6000620003b68262000484565b620003c281856200048f565b9350620003d4818560208601620004a0565b620003df81620005a0565b840191505092915050565b60006040820190508181036000830152620004068185620003a9565b905081810360208301526200041c8184620003a9565b90509392505050565b60006200043162000444565b90506200043f82826200050c565b919050565b6000604051905090565b600067ffffffffffffffff8211156200046c576200046b62000571565b5b6200047782620005a0565b9050602081019050919050565b600081519050919050565b600082825260208201905092915050565b60005b83811015620004c0578082015181840152602081019050620004a3565b83811115620004d0576000848401525b50505050565b60006002820490506001821680620004ef57607f821691505b6020821081141562000506576200050562000542565b5b50919050565b6200051782620005a0565b810181811067ffffffffffffffff8211171562000539576200053862000571565b5b80604052505050565b7f4e487b7100000000000000000000000000000000000000000000000000000000600052602260045260246000fd5b7f4e487b7100000000000000000000000000000000000000000000000000000000600052604160045260246000fd5b6000601f19601f8301169050919050565b610c4080620005c16000396000f3fe608060405234801561001057600080fd5b50600436106100575760003560e01c8063715018a61461005c5780638da5cb5b14610066578063a413686214610084578063cfae3217146100a0578063f2fde38b146100be575b600080fd5b6100646100da565b005b61006e610162565b60405161007b91906108a0565b60405180910390f35b61009e600480360381019061009991906107d1565b61018b565b005b6100a86102ce565b6040516100b591906108bb565b60405180910390f35b6100d860048036038101906100d391906107a8565b610360565b005b6100e26104f4565b73ffffffffffffffffffffffffffffffffffffffff16610100610162565b73ffffffffffffffffffffffffffffffffffffffff1614610156576040517f08c379a000000000000000000000000000000000000000000000000000000000815260040161014d90610980565b60405180910390fd5b61016060006104fc565b565b60008060009054906101000a900473ffffffffffffffffffffffffffffffffffffffff16905090565b6101936104f4565b73ffffffffffffffffffffffffffffffffffffffff166101b1610162565b73ffffffffffffffffffffffffffffffffffffffff1614610207576040517f08c379a00000000000000000000000000000000000000000000000000000000081526004016101fe90610980565b60405180910390fd5b6102b4604051806060016040528060238152602001610be8602391396001805461023090610a86565b80601f016020809104026020016040519081016040528092919081815260200182805461025c90610a86565b80156102a95780601f1061027e576101008083540402835291602001916102a9565b820191906000526020600020905b81548152906001019060200180831161028c57829003601f168201915b5050505050836105c0565b80600190805190602001906102ca929190610688565b5050565b6060600180546102dd90610a86565b80601f016020809104026020016040519081016040528092919081815260200182805461030990610a86565b80156103565780601f1061032b57610100808354040283529160200191610356565b820191906000526020600020905b81548152906001019060200180831161033957829003601f168201915b5050505050905090565b6103686104f4565b73ffffffffffffffffffffffffffffffffffffffff16610386610162565b73ffffffffffffffffffffffffffffffffffffffff16146103dc576040517f08c379a00000000000000000000000000000000000000000000000000000000081526004016103d390610980565b60405180910390fd5b600073ffffffffffffffffffffffffffffffffffffffff168173ffffffffffffffffffffffffffffffffffffffff16141561044c576040517f08c379a000000000000000000000000000000000000000000000000000000000815260040161044390610960565b60405180910390fd5b610455816104fc565b50565b6104f0828260405160240161046e9291906108dd565b6040516020818303038152906040527f4b5c4277000000000000000000000000000000000000000000000000000000007bffffffffffffffffffffffffffffffffffffffffffffffffffffffff19166020820180517bffffffffffffffffffffffffffffffffffffffffffffffffffffffff838183161783525050505061065f565b5050565b600033905090565b60008060009054906101000a900473ffffffffffffffffffffffffffffffffffffffff169050816000806101000a81548173ffffffffffffffffffffffffffffffffffffffff021916908373ffffffffffffffffffffffffffffffffffffffff1602179055508173ffffffffffffffffffffffffffffffffffffffff168173ffffffffffffffffffffffffffffffffffffffff167f8be0079c531659141344cd1fd0a4f28419497f9722a3daafe3b4186f6b6457e060405160405180910390a35050565b61065a8383836040516024016105d893929190610914565b6040516020818303038152906040527f2ced7cef000000000000000000000000000000000000000000000000000000007bffffffffffffffffffffffffffffffffffffffffffffffffffffffff19166020820180517bffffffffffffffffffffffffffffffffffffffffffffffffffffffff838183161783525050505061065f565b505050565b60008151905060006a636f6e736f6c652e6c6f679050602083016000808483855afa5050505050565b82805461069490610a86565b90600052602060002090601f0160209004810192826106b657600085556106fd565b82601f106106cf57805160ff19168380011785556106fd565b828001600101855582156106fd579182015b828111156106fc5782518255916020019190600101906106e1565b5b50905061070a919061070e565b5090565b5b8082111561072757600081600090555060010161070f565b5090565b600061073e610739846109c5565b6109a0565b90508281526020810184848401111561075657600080fd5b610761848285610a44565b509392505050565b60008135905061077881610bd0565b92915050565b600082601f83011261078f57600080fd5b813561079f84826020860161072b565b91505092915050565b6000602082840312156107ba57600080fd5b60006107c884828501610769565b91505092915050565b6000602082840312156107e357600080fd5b600082013567ffffffffffffffff8111156107fd57600080fd5b6108098482850161077e565b91505092915050565b61081b81610a12565b82525050565b600061082c826109f6565b6108368185610a01565b9350610846818560208601610a53565b61084f81610b47565b840191505092915050565b6000610867602683610a01565b915061087282610b58565b604082019050919050565b600061088a602083610a01565b915061089582610ba7565b602082019050919050565b60006020820190506108b56000830184610812565b92915050565b600060208201905081810360008301526108d58184610821565b905092915050565b600060408201905081810360008301526108f78185610821565b9050818103602083015261090b8184610821565b90509392505050565b6000606082019050818103600083015261092e8186610821565b905081810360208301526109428185610821565b905081810360408301526109568184610821565b9050949350505050565b600060208201905081810360008301526109798161085a565b9050919050565b600060208201905081810360008301526109998161087d565b9050919050565b60006109aa6109bb565b90506109b68282610ab8565b919050565b6000604051905090565b600067ffffffffffffffff8211156109e0576109df610b18565b5b6109e982610b47565b9050602081019050919050565b600081519050919050565b600082825260208201905092915050565b6000610a1d82610a24565b9050919050565b600073ffffffffffffffffffffffffffffffffffffffff82169050919050565b82818337600083830152505050565b60005b83811015610a71578082015181840152602081019050610a56565b83811115610a80576000848401525b50505050565b60006002820490506001821680610a9e57607f821691505b60208210811415610ab257610ab1610ae9565b5b50919050565b610ac182610b47565b810181811067ffffffffffffffff82111715610ae057610adf610b18565b5b80604052505050565b7f4e487b7100000000000000000000000000000000000000000000000000000000600052602260045260246000fd5b7f4e487b7100000000000000000000000000000000000000000000000000000000600052604160045260246000fd5b6000601f19601f8301169050919050565b7f4f776e61626c653a206e6577206f776e657220697320746865207a65726f206160008201527f6464726573730000000000000000000000000000000000000000000000000000602082015250565b7f4f776e61626c653a2063616c6c6572206973206e6f7420746865206f776e6572600082015250565b610bd981610a12565b8114610be457600080fd5b5056fe4368616e67696e67206772656574696e672066726f6d202725732720746f2027257327a2646970667358221220969cbfbae53f770587a11001d9dbc149e2fff6320a83c74116add83ef8e88c3c64736f6c634300080400334465706c6f79696e67206120477265657465722077697468206772656574696e673a",
  "linkReferences": {},
  "deployedLinkReferences": {}
}